{
  "_format": "hh-sol-artifact-1",
  "contractName": "Token",
  "sourceName": "contracts/Token.sol",
  "abi": [
    {
      "inputs": [],
      "stateMutability": "nonpayable",
      "type": "constructor"
    },
    {
      "inputs": [
        {
          "internalType": "address",
          "name": "_address",
          "type": "address"
        }
      ],
      "name": "balanceOf",
      "outputs": [
        {
          "internalType": "uint256",
          "name": "",
          "type": "uint256"
        }
      ],
      "stateMutability": "view",
      "type": "function"
    },
    {
      "inputs": [
        {
          "internalType": "address",
          "name": "",
          "type": "address"
        }
      ],
      "name": "balances",
      "outputs": [
        {
          "internalType": "uint256",
          "name": "",
          "type": "uint256"
        }
      ],
      "stateMutability": "view",
      "type": "function"
    },
    {
      "inputs": [],
      "name": "name",
      "outputs": [
        {
          "internalType": "string",
          "name": "",
          "type": "string"
        }
      ],
      "stateMutability": "view",
      "type": "function"
    },
    {
      "inputs": [],
      "name": "owner",
      "outputs": [
        {
          "internalType": "address",
          "name": "",
          "type": "address"
        }
      ],
      "stateMutability": "view",
      "type": "function"
    },
    {
      "inputs": [],
      "name": "symbol",
      "outputs": [
        {
          "internalType": "string",
          "name": "",
          "type": "string"
        }
      ],
      "stateMutability": "view",
      "type": "function"
    },
    {
      "inputs": [],
      "name": "totalSupply",
      "outputs": [
        {
          "internalType": "uint256",
          "name": "",
          "type": "uint256"
        }
      ],
      "stateMutability": "view",
      "type": "function"
    },
    {
      "inputs": [
        {
          "internalType": "address",
          "name": "_to",
          "type": "address"
        },
        {
          "internalType": "uint256",
          "name": "_amount",
          "type": "uint256"
        }
      ],
      "name": "transfer",
      "outputs": [],
      "stateMutability": "nonpayable",
      "type": "function"
    }
  ],
  "bytecode": "0x60806040526040518060400160405280601081526020017f4d79204861726468617420546f6b656e000000000000000000000000000000008152506000908051906020019061004f92919061013c565b506040518060400160405280600381526020017f4d425400000000000000000000000000000000000000000000000000000000008152506001908051906020019061009b92919061013c565b50620f42406002553480156100af57600080fd5b5033600360006101000a81548173ffffffffffffffffffffffffffffffffffffffff021916908373ffffffffffffffffffffffffffffffffffffffff160217905550600254600460003373ffffffffffffffffffffffffffffffffffffffff1673ffffffffffffffffffffffffffffffffffffffff16815260200190815260200160002081905550610240565b828054610148906101df565b90600052602060002090601f01602090048101928261016a57600085556101b1565b82601f1061018357805160ff19168380011785556101b1565b828001600101855582156101b1579182015b828111156101b0578251825591602001919060010190610195565b5b5090506101be91906101c2565b5090565b5b808211156101db5760008160009055506001016101c3565b5090565b600060028204905060018216806101f757607f821691505b6020821081141561020b5761020a610211565b5b50919050565b7f4e487b7100000000000000000000000000000000000000000000000000000000600052602260045260246000fd5b6108098061024f6000396000f3fe608060405234801561001057600080fd5b506004361061007d5760003560e01c806370a082311161005b57806370a08231146100ee5780638da5cb5b1461011e57806395d89b411461013c578063a9059cbb1461015a5761007d565b806306fdde031461008257806318160ddd146100a057806327e235e3146100be575b600080fd5b61008a610176565b6040516100979190610592565b60405180910390f35b6100a8610204565b6040516100b591906105d4565b60405180910390f35b6100d860048036038101906100d3919061047b565b61020a565b6040516100e591906105d4565b60405180910390f35b6101086004803603810190610103919061047b565b610222565b60405161011591906105d4565b60405180910390f35b61012661026b565b6040516101339190610577565b60405180910390f35b610144610291565b6040516101519190610592565b60405180910390f35b610174600480360381019061016f91906104a4565b61031f565b005b6000805461018390610704565b80601f01602080910402602001604051908101604052809291908181526020018280546101af90610704565b80156101fc5780601f106101d1576101008083540402835291602001916101fc565b820191906000526020600020905b8154815290600101906020018083116101df57829003601f168201915b505050505081565b60025481565b60046020528060005260406000206000915090505481565b6000600460008373ffffffffffffffffffffffffffffffffffffffff1673ffffffffffffffffffffffffffffffffffffffff168152602001908152602001600020549050919050565b600360009054906101000a900473ffffffffffffffffffffffffffffffffffffffff1681565b6001805461029e90610704565b80601f01602080910402602001604051908101604052809291908181526020018280546102ca90610704565b80156103175780601f106102ec57610100808354040283529160200191610317565b820191906000526020600020905b8154815290600101906020018083116102fa57829003601f168201915b505050505081565b80600460003373ffffffffffffffffffffffffffffffffffffffff1673ffffffffffffffffffffffffffffffffffffffff1681526020019081526020016000205410156103a1576040517f08c379a0000000000000000000000000000000000000000000000000000000008152600401610398906105b4565b60405180910390fd5b80600460003373ffffffffffffffffffffffffffffffffffffffff1673ffffffffffffffffffffffffffffffffffffffff16815260200190815260200160002060008282546103f09190610661565b9250508190555080600460008473ffffffffffffffffffffffffffffffffffffffff1673ffffffffffffffffffffffffffffffffffffffff1681526020019081526020016000206000828254610446919061060b565b925050819055505050565b600081359050610460816107a5565b92915050565b600081359050610475816107bc565b92915050565b60006020828403121561048d57600080fd5b600061049b84828501610451565b91505092915050565b600080604083850312156104b757600080fd5b60006104c585828601610451565b92505060206104d685828601610466565b9150509250929050565b6104e981610695565b82525050565b60006104fa826105ef565b61050481856105fa565b93506105148185602086016106d1565b61051d81610794565b840191505092915050565b60006105356012836105fa565b91507f4e6f20456e6f7567682042616c616e63657300000000000000000000000000006000830152602082019050919050565b610571816106c7565b82525050565b600060208201905061058c60008301846104e0565b92915050565b600060208201905081810360008301526105ac81846104ef565b905092915050565b600060208201905081810360008301526105cd81610528565b9050919050565b60006020820190506105e96000830184610568565b92915050565b600081519050919050565b600082825260208201905092915050565b6000610616826106c7565b9150610621836106c7565b9250827fffffffffffffffffffffffffffffffffffffffffffffffffffffffffffffffff0382111561065657610655610736565b5b828201905092915050565b600061066c826106c7565b9150610677836106c7565b92508282101561068a57610689610736565b5b828203905092915050565b60006106a0826106a7565b9050919050565b600073ffffffffffffffffffffffffffffffffffffffff82169050919050565b6000819050919050565b60005b838110156106ef5780820151818401526020810190506106d4565b838111156106fe576000848401525b50505050565b6000600282049050600182168061071c57607f821691505b602082108114156107305761072f610765565b5b50919050565b7f4e487b7100000000000000000000000000000000000000000000000000000000600052601160045260246000fd5b7f4e487b7100000000000000000000000000000000000000000000000000000000600052602260045260246000fd5b6000601f19601f8301169050919050565b6107ae81610695565b81146107b957600080fd5b50565b6107c5816106c7565b81146107d057600080fd5b5056fea26469706673582212208b747f0e478cb8eab507ae47775fe44c3c1c5a559956db2b0ee8e329aa0e884064736f6c63430008000033",
  "linkReferences": {},
  "deployedLinkReferences": {}
}