{
  "_format": "hh-sol-artifact-1",
  "contractName": "Token",
  "sourceName": "contracts/Token.sol",
  "abi": [
    {
      "inputs": [],
      "stateMutability": "nonpayable",
      "type": "constructor"
    },
    {
      "inputs": [
        {
          "internalType": "address",
          "name": "_address",
          "type": "address"
        }
      ],
      "name": "balanceOf",
      "outputs": [
        {
          "internalType": "uint256",
          "name": "",
          "type": "uint256"
        }
      ],
      "stateMutability": "view",
      "type": "function"
    },
    {
      "inputs": [
        {
          "internalType": "address",
          "name": "",
          "type": "address"
        }
      ],
      "name": "balances",
      "outputs": [
        {
          "internalType": "uint256",
          "name": "",
          "type": "uint256"
        }
      ],
      "stateMutability": "view",
      "type": "function"
    },
    {
      "inputs": [],
      "name": "name",
      "outputs": [
        {
          "internalType": "string",
          "name": "",
          "type": "string"
        }
      ],
      "stateMutability": "view",
      "type": "function"
    },
    {
      "inputs": [],
      "name": "owner",
      "outputs": [
        {
          "internalType": "address",
          "name": "",
          "type": "address"
        }
      ],
      "stateMutability": "view",
      "type": "function"
    },
    {
      "inputs": [],
      "name": "symbol",
      "outputs": [
        {
          "internalType": "string",
          "name": "",
          "type": "string"
        }
      ],
      "stateMutability": "view",
      "type": "function"
    },
    {
      "inputs": [],
      "name": "totalSupply",
      "outputs": [
        {
          "internalType": "uint256",
          "name": "",
          "type": "uint256"
        }
      ],
      "stateMutability": "view",
      "type": "function"
    },
    {
      "inputs": [
        {
          "internalType": "address",
          "name": "_to",
          "type": "address"
        },
        {
          "internalType": "uint256",
          "name": "_amount",
          "type": "uint256"
        }
      ],
      "name": "transfer",
      "outputs": [],
      "stateMutability": "nonpayable",
      "type": "function"
    }
  ],
  "bytecode": "0x60806040526040518060400160405280601081526020017f4d79204861726468617420546f6b656e000000000000000000000000000000008152506000908051906020019061004f92919061013c565b506040518060400160405280600381526020017f4d425400000000000000000000000000000000000000000000000000000000008152506001908051906020019061009b92919061013c565b50620f42406002553480156100af57600080fd5b5033600360006101000a81548173ffffffffffffffffffffffffffffffffffffffff021916908373ffffffffffffffffffffffffffffffffffffffff160217905550600254600460003373ffffffffffffffffffffffffffffffffffffffff1673ffffffffffffffffffffffffffffffffffffffff16815260200190815260200160002081905550610240565b828054610148906101df565b90600052602060002090601f01602090048101928261016a57600085556101b1565b82601f1061018357805160ff19168380011785556101b1565b828001600101855582156101b1579182015b828111156101b0578251825591602001919060010190610195565b5b5090506101be91906101c2565b5090565b5b808211156101db5760008160009055506001016101c3565b5090565b600060028204905060018216806101f757607f821691505b6020821081141561020b5761020a610211565b5b50919050565b7f4e487b7100000000000000000000000000000000000000000000000000000000600052602260045260246000fd5b610a9980620002506000396000f3fe608060405234801561001057600080fd5b506004361061007d5760003560e01c806370a082311161005b57806370a08231146100ee5780638da5cb5b1461011e57806395d89b411461013c578063a9059cbb1461015a5761007d565b806306fdde031461008257806318160ddd146100a057806327e235e3146100be575b600080fd5b61008a610176565b60405161009791906107b4565b60405180910390f35b6100a8610204565b6040516100b59190610864565b60405180910390f35b6100d860048036038101906100d3919061069d565b61020a565b6040516100e59190610864565b60405180910390f35b6101086004803603810190610103919061069d565b610222565b6040516101159190610864565b60405180910390f35b61012661026b565b6040516101339190610799565b60405180910390f35b610144610291565b60405161015191906107b4565b60405180910390f35b610174600480360381019061016f91906106c6565b61031f565b005b6000805461018390610994565b80601f01602080910402602001604051908101604052809291908181526020018280546101af90610994565b80156101fc5780601f106101d1576101008083540402835291602001916101fc565b820191906000526020600020905b8154815290600101906020018083116101df57829003601f168201915b505050505081565b60025481565b60046020528060005260406000206000915090505481565b6000600460008373ffffffffffffffffffffffffffffffffffffffff1673ffffffffffffffffffffffffffffffffffffffff168152602001908152602001600020549050919050565b600360009054906101000a900473ffffffffffffffffffffffffffffffffffffffff1681565b6001805461029e90610994565b80601f01602080910402602001604051908101604052809291908181526020018280546102ca90610994565b80156103175780601f106102ec57610100808354040283529160200191610317565b820191906000526020600020905b8154815290600101906020018083116102fa57829003601f168201915b505050505081565b61039d6040518060400160405280601881526020017f5468652073656e6465722062616c616e63652069732025730000000000000000815250600460003373ffffffffffffffffffffffffffffffffffffffff1673ffffffffffffffffffffffffffffffffffffffff1681526020019081526020016000205461050f565b6103dd6040518060400160405280601d81526020017f747279696e6720746f2073656e6420257320746f6b656e20746f20257300000081525082846105ab565b80600460003373ffffffffffffffffffffffffffffffffffffffff1673ffffffffffffffffffffffffffffffffffffffff16815260200190815260200160002054101561045f576040517f08c379a000000000000000000000000000000000000000000000000000000000815260040161045690610844565b60405180910390fd5b80600460003373ffffffffffffffffffffffffffffffffffffffff1673ffffffffffffffffffffffffffffffffffffffff16815260200190815260200160002060008282546104ae91906108f1565b9250508190555080600460008473ffffffffffffffffffffffffffffffffffffffff1673ffffffffffffffffffffffffffffffffffffffff1681526020019081526020016000206000828254610504919061089b565b925050819055505050565b6105a782826040516024016105259291906107d6565b6040516020818303038152906040527f9710a9d0000000000000000000000000000000000000000000000000000000007bffffffffffffffffffffffffffffffffffffffffffffffffffffffff19166020820180517bffffffffffffffffffffffffffffffffffffffffffffffffffffffff838183161783525050505061064a565b5050565b6106458383836040516024016105c393929190610806565b6040516020818303038152906040527fe3849f79000000000000000000000000000000000000000000000000000000007bffffffffffffffffffffffffffffffffffffffffffffffffffffffff19166020820180517bffffffffffffffffffffffffffffffffffffffffffffffffffffffff838183161783525050505061064a565b505050565b60008151905060006a636f6e736f6c652e6c6f679050602083016000808483855afa5050505050565b60008135905061068281610a35565b92915050565b60008135905061069781610a4c565b92915050565b6000602082840312156106af57600080fd5b60006106bd84828501610673565b91505092915050565b600080604083850312156106d957600080fd5b60006106e785828601610673565b92505060206106f885828601610688565b9150509250929050565b61070b81610925565b82525050565b600061071c8261087f565b610726818561088a565b9350610736818560208601610961565b61073f81610a24565b840191505092915050565b600061075760128361088a565b91507f4e6f20456e6f7567682042616c616e63657300000000000000000000000000006000830152602082019050919050565b61079381610957565b82525050565b60006020820190506107ae6000830184610702565b92915050565b600060208201905081810360008301526107ce8184610711565b905092915050565b600060408201905081810360008301526107f08185610711565b90506107ff602083018461078a565b9392505050565b600060608201905081810360008301526108208186610711565b905061082f602083018561078a565b61083c6040830184610702565b949350505050565b6000602082019050818103600083015261085d8161074a565b9050919050565b6000602082019050610879600083018461078a565b92915050565b600081519050919050565b600082825260208201905092915050565b60006108a682610957565b91506108b183610957565b9250827fffffffffffffffffffffffffffffffffffffffffffffffffffffffffffffffff038211156108e6576108e56109c6565b5b828201905092915050565b60006108fc82610957565b915061090783610957565b92508282101561091a576109196109c6565b5b828203905092915050565b600061093082610937565b9050919050565b600073ffffffffffffffffffffffffffffffffffffffff82169050919050565b6000819050919050565b60005b8381101561097f578082015181840152602081019050610964565b8381111561098e576000848401525b50505050565b600060028204905060018216806109ac57607f821691505b602082108114156109c0576109bf6109f5565b5b50919050565b7f4e487b7100000000000000000000000000000000000000000000000000000000600052601160045260246000fd5b7f4e487b7100000000000000000000000000000000000000000000000000000000600052602260045260246000fd5b6000601f19601f8301169050919050565b610a3e81610925565b8114610a4957600080fd5b50565b610a5581610957565b8114610a6057600080fd5b5056fea264697066735822122015c2f507fd96ebfa127c5e72704491b6c7c2e9d65b00012e23da93a16ddc41d964736f6c63430008000033",
  "linkReferences": {},
  "deployedLinkReferences": {}
}